{
  "contractName": "Enrollment",
  "abi": [
    {
      "constant": true,
      "inputs": [],
      "name": "spotRate",
      "outputs": [
        {
          "name": "",
          "type": "uint256"
        }
      ],
      "payable": false,
      "stateMutability": "view",
      "type": "function"
    },
    {
      "constant": true,
      "inputs": [
        {
          "name": "",
          "type": "uint256"
        }
      ],
      "name": "studentList",
      "outputs": [
        {
          "name": "",
          "type": "address"
        }
      ],
      "payable": false,
      "stateMutability": "view",
      "type": "function"
    },
    {
      "constant": true,
      "inputs": [],
      "name": "owner",
      "outputs": [
        {
          "name": "",
          "type": "address"
        }
      ],
      "payable": false,
      "stateMutability": "view",
      "type": "function"
    },
    {
      "constant": true,
      "inputs": [],
      "name": "maxSeats",
      "outputs": [
        {
          "name": "",
          "type": "uint256"
        }
      ],
      "payable": false,
      "stateMutability": "view",
      "type": "function"
    },
    {
      "constant": true,
      "inputs": [
        {
          "name": "",
          "type": "address"
        }
      ],
      "name": "students",
      "outputs": [
        {
          "name": "uuid",
          "type": "address"
        },
        {
          "name": "index",
          "type": "uint256"
        },
        {
          "name": "balance",
          "type": "uint256"
        },
        {
          "name": "name",
          "type": "bytes"
        }
      ],
      "payable": false,
      "stateMutability": "view",
      "type": "function"
    },
    {
      "constant": true,
      "inputs": [],
      "name": "usdTuition",
      "outputs": [
        {
          "name": "",
          "type": "uint256"
        }
      ],
      "payable": false,
      "stateMutability": "view",
      "type": "function"
    },
    {
      "constant": true,
      "inputs": [],
      "name": "classSize",
      "outputs": [
        {
          "name": "",
          "type": "uint256"
        }
      ],
      "payable": false,
      "stateMutability": "view",
      "type": "function"
    },
    {
      "constant": true,
      "inputs": [],
      "name": "weiTuition",
      "outputs": [
        {
          "name": "",
          "type": "uint256"
        }
      ],
      "payable": false,
      "stateMutability": "view",
      "type": "function"
    },
    {
      "constant": false,
      "inputs": [
        {
          "name": "newOwner",
          "type": "address"
        }
      ],
      "name": "transferOwnership",
      "outputs": [],
      "payable": false,
      "stateMutability": "nonpayable",
      "type": "function"
    },
    {
      "constant": true,
      "inputs": [],
      "name": "lastUpdatedTuitionBlock",
      "outputs": [
        {
          "name": "",
          "type": "uint256"
        }
      ],
      "payable": false,
      "stateMutability": "view",
      "type": "function"
    },
    {
      "inputs": [
        {
          "name": "_maxSeats",
          "type": "uint256"
        },
        {
          "name": "_usdTuition",
          "type": "uint256"
        },
        {
          "name": "_spotRate",
          "type": "uint256"
        }
      ],
      "payable": false,
      "stateMutability": "nonpayable",
      "type": "constructor"
    },
    {
      "anonymous": false,
      "inputs": [
        {
          "indexed": false,
          "name": "student",
          "type": "address"
        },
        {
          "indexed": false,
          "name": "name",
          "type": "bytes"
        }
      ],
      "name": "LogEnroll",
      "type": "event"
    },
    {
      "constant": false,
      "inputs": [
        {
          "name": "name",
          "type": "bytes"
        }
      ],
      "name": "enroll",
      "outputs": [],
      "payable": true,
      "stateMutability": "payable",
      "type": "function"
    },
    {
      "constant": false,
      "inputs": [
        {
          "name": "amount",
          "type": "uint256"
        }
      ],
      "name": "collect",
      "outputs": [],
      "payable": false,
      "stateMutability": "nonpayable",
      "type": "function"
    },
    {
      "constant": false,
      "inputs": [],
      "name": "empty",
      "outputs": [],
      "payable": false,
      "stateMutability": "nonpayable",
      "type": "function"
    },
    {
      "constant": false,
      "inputs": [
        {
          "name": "newMaxSeats",
          "type": "uint256"
        }
      ],
      "name": "updateMaxSeats",
      "outputs": [],
      "payable": false,
      "stateMutability": "nonpayable",
      "type": "function"
    },
    {
      "constant": false,
      "inputs": [
        {
          "name": "newTuition",
          "type": "uint256"
        }
      ],
      "name": "updateTuition",
      "outputs": [],
      "payable": false,
      "stateMutability": "nonpayable",
      "type": "function"
    },
    {
      "constant": false,
      "inputs": [
        {
          "name": "newSpotRate",
          "type": "uint256"
        }
      ],
      "name": "updateSpotRate",
      "outputs": [],
      "payable": false,
      "stateMutability": "nonpayable",
      "type": "function"
    },
    {
      "constant": false,
      "inputs": [
        {
          "name": "studentAddress",
          "type": "address"
        }
      ],
      "name": "refund",
      "outputs": [],
      "payable": false,
      "stateMutability": "nonpayable",
      "type": "function"
    }
  ],
  "bytecode": "0x6060604052341561000f57600080fd5b60405160608061126783398101604052808051906020019091908051906020019091908051906020019091905050336000806101000a81548173ffffffffffffffffffffffffffffffffffffffff021916908373ffffffffffffffffffffffffffffffffffffffff160217905550600060068190555082600181905550816002819055508060048190555060025460045402600381905550436005819055505050506111a7806100c06000396000f3006060604052600436106100f1576000357c0100000000000000000000000000000000000000000000000000000000900463ffffffff168063268d47fb146100f65780635bf8af28146101485780636c442a1b146101715780637df221e9146101945780638da5cb5b146101f7578063905d3f801461024c578063a6c807a914610275578063ce3f865f14610385578063d181c5ed146103a8578063d8e6a279146103cb578063e997d6d8146103f4578063ead743171461041d578063f2a75fe414610446578063f2fde38b1461045b578063f5952ee514610494578063f7e720dd146104b7578063fa89401a146104e0575b600080fd5b610146600480803590602001908201803590602001908080601f01602080910402602001604051908101604052809392919081815260200183838082843782019150505050505091905050610519565b005b341561015357600080fd5b61015b610898565b6040518082815260200191505060405180910390f35b341561017c57600080fd5b610192600480803590602001909190505061089e565b005b341561019f57600080fd5b6101b56004808035906020019091905050610917565b604051808273ffffffffffffffffffffffffffffffffffffffff1673ffffffffffffffffffffffffffffffffffffffff16815260200191505060405180910390f35b341561020257600080fd5b61020a610956565b604051808273ffffffffffffffffffffffffffffffffffffffff1673ffffffffffffffffffffffffffffffffffffffff16815260200191505060405180910390f35b341561025757600080fd5b61025f61097b565b6040518082815260200191505060405180910390f35b341561028057600080fd5b6102ac600480803573ffffffffffffffffffffffffffffffffffffffff16906020019091905050610981565b604051808573ffffffffffffffffffffffffffffffffffffffff1673ffffffffffffffffffffffffffffffffffffffff168152602001848152602001838152602001806020018281038252838181546001816001161561010002031660029004815260200191508054600181600116156101000203166002900480156103735780601f1061034857610100808354040283529160200191610373565b820191906000526020600020905b81548152906001019060200180831161035657829003601f168201915b50509550505050505060405180910390f35b341561039057600080fd5b6103a660048080359060200190919050506109d0565b005b34156103b357600080fd5b6103c96004808035906020019091905050610b21565b005b34156103d657600080fd5b6103de610b86565b6040518082815260200191505060405180910390f35b34156103ff57600080fd5b610407610b8c565b6040518082815260200191505060405180910390f35b341561042857600080fd5b610430610b92565b6040518082815260200191505060405180910390f35b341561045157600080fd5b610459610b98565b005b341561046657600080fd5b610492600480803573ffffffffffffffffffffffffffffffffffffffff16906020019091905050610cef565b005b341561049f57600080fd5b6104b56004808035906020019091905050610d8d565b005b34156104c257600080fd5b6104ca610e06565b6040518082815260200191505060405180910390f35b34156104eb57600080fd5b610517600480803573ffffffffffffffffffffffffffffffffffffffff16906020019091905050610e0c565b005b600354341015151561052a57600080fd5b60015460088054905010151561053f57600080fd5b6000600760003373ffffffffffffffffffffffffffffffffffffffff1673ffffffffffffffffffffffffffffffffffffffff16815260200190815260200160002060000160009054906101000a900473ffffffffffffffffffffffffffffffffffffffff1673ffffffffffffffffffffffffffffffffffffffff161415156105c657600080fd5b6080604051908101604052803373ffffffffffffffffffffffffffffffffffffffff1681526020016001600880548060010182816106049190611062565b9160005260206000209001600033909190916101000a81548173ffffffffffffffffffffffffffffffffffffffff021916908373ffffffffffffffffffffffffffffffffffffffff16021790555003815260200134815260200182815250600760003373ffffffffffffffffffffffffffffffffffffffff1673ffffffffffffffffffffffffffffffffffffffff16815260200190815260200160002060008201518160000160006101000a81548173ffffffffffffffffffffffffffffffffffffffff021916908373ffffffffffffffffffffffffffffffffffffffff1602179055506020820151816001015560408201518160020155606082015181600301908051906020019061071892919061108e565b5090505060016006600082825401925050819055507fb711e7cffbfdd954c0ebdbbeaddc8b0e89e5deae22bf80db75f7a0f979f868373382604051808373ffffffffffffffffffffffffffffffffffffffff1673ffffffffffffffffffffffffffffffffffffffff16815260200180602001828103825283818151815260200191508051906020019080838360005b838110156107c25780820151818401526020810190506107a7565b50505050905090810190601f1680156107ef5780820380516001836020036101000a031916815260200191505b50935050505060405180910390a1600354341115610895573373ffffffffffffffffffffffffffffffffffffffff166108fc60035434039081150290604051600060405180830381858888f19350505050151561084b57600080fd5b600354600760003373ffffffffffffffffffffffffffffffffffffffff1673ffffffffffffffffffffffffffffffffffffffff168152602001908152602001600020600201819055505b50565b60045481565b6000809054906101000a900473ffffffffffffffffffffffffffffffffffffffff1673ffffffffffffffffffffffffffffffffffffffff163373ffffffffffffffffffffffffffffffffffffffff161415156108f957600080fd5b80600281905550600454600254026003819055504360058190555050565b60088181548110151561092657fe5b90600052602060002090016000915054906101000a900473ffffffffffffffffffffffffffffffffffffffff1681565b6000809054906101000a900473ffffffffffffffffffffffffffffffffffffffff1681565b60015481565b60076020528060005260406000206000915090508060000160009054906101000a900473ffffffffffffffffffffffffffffffffffffffff169080600101549080600201549080600301905084565b6000809054906101000a900473ffffffffffffffffffffffffffffffffffffffff1673ffffffffffffffffffffffffffffffffffffffff163373ffffffffffffffffffffffffffffffffffffffff16141515610a2b57600080fd5b6000809054906101000a900473ffffffffffffffffffffffffffffffffffffffff1673ffffffffffffffffffffffffffffffffffffffff163373ffffffffffffffffffffffffffffffffffffffff16141515610a8657600080fd5b3073ffffffffffffffffffffffffffffffffffffffff16318111151515610aac57600080fd5b6004548110151515610abd57600080fd5b6000809054906101000a900473ffffffffffffffffffffffffffffffffffffffff1673ffffffffffffffffffffffffffffffffffffffff166108fc829081150290604051600060405180830381858888f193505050501515610b1e57600080fd5b50565b6000809054906101000a900473ffffffffffffffffffffffffffffffffffffffff1673ffffffffffffffffffffffffffffffffffffffff163373ffffffffffffffffffffffffffffffffffffffff16141515610b7c57600080fd5b8060018190555050565b60025481565b60065481565b60035481565b6000809054906101000a900473ffffffffffffffffffffffffffffffffffffffff1673ffffffffffffffffffffffffffffffffffffffff163373ffffffffffffffffffffffffffffffffffffffff16141515610bf357600080fd5b6000809054906101000a900473ffffffffffffffffffffffffffffffffffffffff1673ffffffffffffffffffffffffffffffffffffffff163373ffffffffffffffffffffffffffffffffffffffff16141515610c4e57600080fd5b453a023073ffffffffffffffffffffffffffffffffffffffff1631111515610c7557600080fd5b6000809054906101000a900473ffffffffffffffffffffffffffffffffffffffff1673ffffffffffffffffffffffffffffffffffffffff166108fc3073ffffffffffffffffffffffffffffffffffffffff16319081150290604051600060405180830381858888f193505050501515610ced57600080fd5b565b6000809054906101000a900473ffffffffffffffffffffffffffffffffffffffff1673ffffffffffffffffffffffffffffffffffffffff163373ffffffffffffffffffffffffffffffffffffffff16141515610d4a57600080fd5b806000806101000a81548173ffffffffffffffffffffffffffffffffffffffff021916908373ffffffffffffffffffffffffffffffffffffffff16021790555050565b6000809054906101000a900473ffffffffffffffffffffffffffffffffffffffff1673ffffffffffffffffffffffffffffffffffffffff163373ffffffffffffffffffffffffffffffffffffffff16141515610de857600080fd5b80600481905550600454600254026003819055504360058190555050565b60055481565b6000806000809054906101000a900473ffffffffffffffffffffffffffffffffffffffff1673ffffffffffffffffffffffffffffffffffffffff163373ffffffffffffffffffffffffffffffffffffffff16141515610e6a57600080fd5b6000600760008573ffffffffffffffffffffffffffffffffffffffff1673ffffffffffffffffffffffffffffffffffffffff1681526020019081526020016000206002015414151515610ebc57600080fd5b600760008473ffffffffffffffffffffffffffffffffffffffff1673ffffffffffffffffffffffffffffffffffffffff168152602001908152602001600020600201549150600760008473ffffffffffffffffffffffffffffffffffffffff1673ffffffffffffffffffffffffffffffffffffffff1681526020019081526020016000206001015490508273ffffffffffffffffffffffffffffffffffffffff166108fc839081150290604051600060405180830381858888f193505050501515610f8657600080fd5b600760008473ffffffffffffffffffffffffffffffffffffffff1673ffffffffffffffffffffffffffffffffffffffff168152602001908152602001600020600080820160006101000a81549073ffffffffffffffffffffffffffffffffffffffff02191690556001820160009055600282016000905560038201600061100d919061110e565b505060088181548110151561101e57fe5b906000526020600020900160006101000a81549073ffffffffffffffffffffffffffffffffffffffff02191690556001600660008282540392505081905550505050565b815481835581811511611089578183600052602060002091820191016110889190611156565b5b505050565b828054600181600116156101000203166002900490600052602060002090601f016020900481019282601f106110cf57805160ff19168380011785556110fd565b828001600101855582156110fd579182015b828111156110fc5782518255916020019190600101906110e1565b5b50905061110a9190611156565b5090565b50805460018160011615610100020316600290046000825580601f106111345750611153565b601f0160209004906000526020600020908101906111529190611156565b5b50565b61117891905b8082111561117457600081600090555060010161115c565b5090565b905600a165627a7a72305820c7db8bc4647b855881471bb02d6a8da09b5456056a82c930fac272a78bb20c450029",
  "source": "pragma solidity ^0.4.17;\n\nimport './Ownable.sol';\n\ncontract Enrollment is Ownable {\n    uint public maxSeats;\n    uint public usdTuition;\n    uint public weiTuition;\n    uint public spotRate; //This is wei/usd rate. create oracle for up-to-date pricing\n    uint public lastUpdatedTuitionBlock;\n    uint public classSize;\n\n    event LogEnroll(address student, bytes name);\n\n    struct Student {\n      address uuid;\n      uint index;\n      uint balance;\n      bytes name; //Optional\n    }\n\n    mapping (address => Student) public students;\n    address[] public studentList;\n\n    function Enrollment(uint _maxSeats, uint _usdTuition, uint _spotRate) public {\n      classSize = 0;\n      maxSeats = _maxSeats;\n      usdTuition = _usdTuition;\n      spotRate = _spotRate;\n\n      weiTuition = spotRate * usdTuition;\n\n      lastUpdatedTuitionBlock = block.number;\n    }\n\n    function enroll(bytes name) public payable {\n      require(msg.value >= weiTuition);\n      require(studentList.length < maxSeats);\n      require(students[msg.sender].uuid == 0);\n\n      students[msg.sender] = Student({\n        uuid: msg.sender,\n        index: studentList.push(msg.sender) - 1,\n        balance: msg.value,\n        name: name\n      });\n\n      classSize += 1;\n      LogEnroll(msg.sender, name);\n\n      if(msg.value > weiTuition) {\n        msg.sender.transfer(msg.value - weiTuition);\n        students[msg.sender].balance = weiTuition;\n      }\n    }\n\n    /* withdraw a set amount (argument) of ETH to owner account */\n    function collect(uint amount) public onlyOwner {\n      require(msg.sender == owner);\n      require(amount <= this.balance);\n      require(amount >= spotRate);\n\n      owner.transfer(amount);\n    }\n\n    /* Just empty all ETH in contract to owner's account */\n    function empty() public onlyOwner {\n      require(msg.sender == owner);\n      require(this.balance > (tx.gasprice * block.gaslimit));\n\n      owner.transfer(this.balance);\n    }\n\n    function updateMaxSeats(uint newMaxSeats) public {\n      require(msg.sender == owner);\n\n      maxSeats = newMaxSeats;\n    }\n\n    function updateTuition(uint newTuition) public {\n      require(msg.sender == owner);\n\n      usdTuition = newTuition;\n      weiTuition = usdTuition * spotRate;\n      lastUpdatedTuitionBlock = block.number;\n    }\n\n    function updateSpotRate(uint newSpotRate) public {\n      require(msg.sender == owner);\n\n      spotRate = newSpotRate;\n      weiTuition = usdTuition * spotRate;\n      lastUpdatedTuitionBlock = block.number;\n    }\n\n    function refund(address studentAddress) public {\n      require(msg.sender == owner);\n      require(students[studentAddress].balance != 0);\n\n      uint balance = students[studentAddress].balance;\n      uint index = students[studentAddress].index;\n\n      studentAddress.transfer(balance);\n      delete students[studentAddress];\n      delete studentList[index];\n      classSize -=1;\n    }\n}\n",
  "sourcePath": "/Users/doug/learning/eth/basic-dapp/contracts/Enrollment.sol",
  "compiler": {
    "name": "solc",
    "version": "0.4.19+commit.c4cbbb05.Emscripten.clang"
  },
  "schemaVersion": "2.0.0",
  "updatedAt": "2018-03-27T04:15:55.882Z"
}