{
  "contractName": "Enrollment",
  "abi": [
    {
      "constant": true,
      "inputs": [],
      "name": "spotRate",
      "outputs": [
        {
          "name": "",
          "type": "uint256"
        }
      ],
      "payable": false,
      "stateMutability": "view",
      "type": "function"
    },
    {
      "constant": true,
      "inputs": [
        {
          "name": "",
          "type": "uint256"
        }
      ],
      "name": "studentList",
      "outputs": [
        {
          "name": "",
          "type": "address"
        }
      ],
      "payable": false,
      "stateMutability": "view",
      "type": "function"
    },
    {
      "constant": true,
      "inputs": [],
      "name": "owner",
      "outputs": [
        {
          "name": "",
          "type": "address"
        }
      ],
      "payable": false,
      "stateMutability": "view",
      "type": "function"
    },
    {
      "constant": true,
      "inputs": [],
      "name": "maxSeats",
      "outputs": [
        {
          "name": "",
          "type": "uint256"
        }
      ],
      "payable": false,
      "stateMutability": "view",
      "type": "function"
    },
    {
      "constant": true,
      "inputs": [
        {
          "name": "",
          "type": "address"
        }
      ],
      "name": "students",
      "outputs": [
        {
          "name": "uuid",
          "type": "address"
        },
        {
          "name": "index",
          "type": "uint256"
        },
        {
          "name": "balance",
          "type": "uint256"
        },
        {
          "name": "name",
          "type": "bytes"
        }
      ],
      "payable": false,
      "stateMutability": "view",
      "type": "function"
    },
    {
      "constant": true,
      "inputs": [],
      "name": "usdTuition",
      "outputs": [
        {
          "name": "",
          "type": "uint256"
        }
      ],
      "payable": false,
      "stateMutability": "view",
      "type": "function"
    },
    {
      "constant": true,
      "inputs": [],
      "name": "weiTuition",
      "outputs": [
        {
          "name": "",
          "type": "uint256"
        }
      ],
      "payable": false,
      "stateMutability": "view",
      "type": "function"
    },
    {
      "constant": false,
      "inputs": [
        {
          "name": "newOwner",
          "type": "address"
        }
      ],
      "name": "transferOwnership",
      "outputs": [],
      "payable": false,
      "stateMutability": "nonpayable",
      "type": "function"
    },
    {
      "constant": true,
      "inputs": [],
      "name": "lastUpdatedTuitionBlock",
      "outputs": [
        {
          "name": "",
          "type": "uint256"
        }
      ],
      "payable": false,
      "stateMutability": "view",
      "type": "function"
    },
    {
      "inputs": [
        {
          "name": "_maxSeats",
          "type": "uint256"
        },
        {
          "name": "_usdTuition",
          "type": "uint256"
        },
        {
          "name": "_spotRate",
          "type": "uint256"
        }
      ],
      "payable": false,
      "stateMutability": "nonpayable",
      "type": "constructor"
    },
    {
      "anonymous": false,
      "inputs": [
        {
          "indexed": false,
          "name": "student",
          "type": "address"
        },
        {
          "indexed": false,
          "name": "name",
          "type": "bytes"
        }
      ],
      "name": "LogEnroll",
      "type": "event"
    },
    {
      "constant": false,
      "inputs": [
        {
          "name": "name",
          "type": "bytes"
        }
      ],
      "name": "enroll",
      "outputs": [],
      "payable": true,
      "stateMutability": "payable",
      "type": "function"
    },
    {
      "constant": true,
      "inputs": [],
      "name": "rosterLength",
      "outputs": [
        {
          "name": "",
          "type": "uint256"
        }
      ],
      "payable": false,
      "stateMutability": "view",
      "type": "function"
    }
  ],
  "bytecode": "0x6060604052341561000f57600080fd5b604051606080610a9c83398101604052808051906020019091908051906020019091908051906020019091905050336000806101000a81548173ffffffffffffffffffffffffffffffffffffffff021916908373ffffffffffffffffffffffffffffffffffffffff16021790555082600181905550816002819055508060048190555060025460045402600381905550436005819055505050506109e4806100b86000396000f3006060604052600436106100af576000357c0100000000000000000000000000000000000000000000000000000000900463ffffffff168063268d47fb146100b45780635bf8af28146101065780637df221e91461012f5780637e20088d146101925780638da5cb5b146101bb578063905d3f8014610210578063a6c807a914610239578063d8e6a27914610349578063ead7431714610372578063f2fde38b1461039b578063f7e720dd146103d4575b600080fd5b610104600480803590602001908201803590602001908080601f016020809104026020016040519081016040528093929190818152602001838380828437820191505050505050919050506103fd565b005b341561011157600080fd5b61011961076b565b6040518082815260200191505060405180910390f35b341561013a57600080fd5b6101506004808035906020019091905050610771565b604051808273ffffffffffffffffffffffffffffffffffffffff1673ffffffffffffffffffffffffffffffffffffffff16815260200191505060405180910390f35b341561019d57600080fd5b6101a56107b0565b6040518082815260200191505060405180910390f35b34156101c657600080fd5b6101ce6107bd565b604051808273ffffffffffffffffffffffffffffffffffffffff1673ffffffffffffffffffffffffffffffffffffffff16815260200191505060405180910390f35b341561021b57600080fd5b6102236107e2565b6040518082815260200191505060405180910390f35b341561024457600080fd5b610270600480803573ffffffffffffffffffffffffffffffffffffffff169060200190919050506107e8565b604051808573ffffffffffffffffffffffffffffffffffffffff1673ffffffffffffffffffffffffffffffffffffffff168152602001848152602001838152602001806020018281038252838181546001816001161561010002031660029004815260200191508054600181600116156101000203166002900480156103375780601f1061030c57610100808354040283529160200191610337565b820191906000526020600020905b81548152906001019060200180831161031a57829003601f168201915b50509550505050505060405180910390f35b341561035457600080fd5b61035c610837565b6040518082815260200191505060405180910390f35b341561037d57600080fd5b61038561083d565b6040518082815260200191505060405180910390f35b34156103a657600080fd5b6103d2600480803573ffffffffffffffffffffffffffffffffffffffff16906020019091905050610843565b005b34156103df57600080fd5b6103e76108e1565b6040518082815260200191505060405180910390f35b600354341015151561040e57600080fd5b60015460078054905010151561042357600080fd5b6000600660003373ffffffffffffffffffffffffffffffffffffffff1673ffffffffffffffffffffffffffffffffffffffff16815260200190815260200160002060000160009054906101000a900473ffffffffffffffffffffffffffffffffffffffff1673ffffffffffffffffffffffffffffffffffffffff161415156104aa57600080fd5b6080604051908101604052803373ffffffffffffffffffffffffffffffffffffffff1681526020016001600780548060010182816104e891906108e7565b9160005260206000209001600033909190916101000a81548173ffffffffffffffffffffffffffffffffffffffff021916908373ffffffffffffffffffffffffffffffffffffffff16021790555003815260200134815260200182815250600660003373ffffffffffffffffffffffffffffffffffffffff1673ffffffffffffffffffffffffffffffffffffffff16815260200190815260200160002060008201518160000160006101000a81548173ffffffffffffffffffffffffffffffffffffffff021916908373ffffffffffffffffffffffffffffffffffffffff160217905550602082015181600101556040820151816002015560608201518160030190805190602001906105fc929190610913565b509050507fb711e7cffbfdd954c0ebdbbeaddc8b0e89e5deae22bf80db75f7a0f979f868373382604051808373ffffffffffffffffffffffffffffffffffffffff1673ffffffffffffffffffffffffffffffffffffffff16815260200180602001828103825283818151815260200191508051906020019080838360005b8381101561069557808201518184015260208101905061067a565b50505050905090810190601f1680156106c25780820380516001836020036101000a031916815260200191505b50935050505060405180910390a1600354341115610768573373ffffffffffffffffffffffffffffffffffffffff166108fc60035434039081150290604051600060405180830381858888f19350505050151561071e57600080fd5b600354600660003373ffffffffffffffffffffffffffffffffffffffff1673ffffffffffffffffffffffffffffffffffffffff168152602001908152602001600020600201819055505b50565b60045481565b60078181548110151561078057fe5b90600052602060002090016000915054906101000a900473ffffffffffffffffffffffffffffffffffffffff1681565b6000600780549050905090565b6000809054906101000a900473ffffffffffffffffffffffffffffffffffffffff1681565b60015481565b60066020528060005260406000206000915090508060000160009054906101000a900473ffffffffffffffffffffffffffffffffffffffff169080600101549080600201549080600301905084565b60025481565b60035481565b6000809054906101000a900473ffffffffffffffffffffffffffffffffffffffff1673ffffffffffffffffffffffffffffffffffffffff163373ffffffffffffffffffffffffffffffffffffffff1614151561089e57600080fd5b806000806101000a81548173ffffffffffffffffffffffffffffffffffffffff021916908373ffffffffffffffffffffffffffffffffffffffff16021790555050565b60055481565b81548183558181151161090e5781836000526020600020918201910161090d9190610993565b5b505050565b828054600181600116156101000203166002900490600052602060002090601f016020900481019282601f1061095457805160ff1916838001178555610982565b82800160010185558215610982579182015b82811115610981578251825591602001919060010190610966565b5b50905061098f9190610993565b5090565b6109b591905b808211156109b1576000816000905550600101610999565b5090565b905600a165627a7a72305820039629db5ea7682e525e352dd9975d46cdd0d2d67a02f5f1c0e758099d1b3bbd0029",
  "source": "pragma solidity ^0.4.17;\n\nimport './Ownable.sol';\n\ncontract Enrollment is Ownable {\n    uint public maxSeats;\n    uint public usdTuition;\n    uint public weiTuition;\n    uint public spotRate; //This is wei/usd rate. create oracle for up-to-date pricing\n    uint public lastUpdatedTuitionBlock;\n\n    event LogEnroll(address student, bytes name);\n\n    struct Student {\n      address uuid;\n      uint index;\n      uint balance;\n      bytes name; //Optional\n    }\n\n    mapping (address => Student) public students;\n    address[] public studentList;\n\n    function Enrollment(uint _maxSeats, uint _usdTuition, uint _spotRate) public {\n      maxSeats = _maxSeats;\n      usdTuition = _usdTuition;\n      spotRate = _spotRate;\n\n      weiTuition = spotRate * usdTuition;\n\n      lastUpdatedTuitionBlock = block.number;\n    }\n\n    function enroll(bytes name) public payable {\n      require(msg.value >= weiTuition);\n      require(studentList.length < maxSeats);\n      require(students[msg.sender].uuid == 0);\n\n      students[msg.sender] = Student({\n        uuid: msg.sender,\n        index: studentList.push(msg.sender) - 1,\n        balance: msg.value,\n        name: name\n      });\n\n      LogEnroll(msg.sender, name);\n\n      if(msg.value > weiTuition) {\n        msg.sender.transfer(msg.value - weiTuition);\n        students[msg.sender].balance = weiTuition;\n      }\n    }\n\n    function rosterLength() public view returns (uint) {\n      return studentList.length;\n    }\n\n    /* withdraw a set amount (argument) of ETH to owner account */\n    /* function collect() public onlyOwner {\n      owner.transfer(this.balance);\n    } */\n\n    /* Just empty all ETH in contract to owner's account */\n    /* function empty() public onlyOwner {\n\n    } */\n\n    /* function changeMaxSeats(uint newMaxSeats) public {\n      require(msg.sender == owner);\n      require(newMaxSeats > 0);\n\n      maxSeats = newMaxSeats;\n    } */\n\n    /* function refund(address student) public {\n\n    } */\n}\n",
  "sourcePath": "/Users/doug/learning/eth/basic-dapp/contracts/Enrollment.sol",
  "compiler": {
    "name": "solc",
    "version": "0.4.19+commit.c4cbbb05.Emscripten.clang"
  },
  "schemaVersion": "2.0.0",
  "updatedAt": "2018-03-12T02:20:31.601Z"
}