{
  "contractName": "Enrollment",
  "abi": [
    {
      "constant": true,
      "inputs": [],
      "name": "spotRate",
      "outputs": [
        {
          "name": "",
          "type": "uint256"
        }
      ],
      "payable": false,
      "stateMutability": "view",
      "type": "function"
    },
    {
      "constant": true,
      "inputs": [
        {
          "name": "",
          "type": "uint256"
        }
      ],
      "name": "studentList",
      "outputs": [
        {
          "name": "",
          "type": "address"
        }
      ],
      "payable": false,
      "stateMutability": "view",
      "type": "function"
    },
    {
      "constant": true,
      "inputs": [],
      "name": "owner",
      "outputs": [
        {
          "name": "",
          "type": "address"
        }
      ],
      "payable": false,
      "stateMutability": "view",
      "type": "function"
    },
    {
      "constant": true,
      "inputs": [],
      "name": "maxSeats",
      "outputs": [
        {
          "name": "",
          "type": "uint256"
        }
      ],
      "payable": false,
      "stateMutability": "view",
      "type": "function"
    },
    {
      "constant": true,
      "inputs": [
        {
          "name": "",
          "type": "address"
        }
      ],
      "name": "students",
      "outputs": [
        {
          "name": "uuid",
          "type": "address"
        },
        {
          "name": "index",
          "type": "uint256"
        },
        {
          "name": "balance",
          "type": "uint256"
        },
        {
          "name": "name",
          "type": "bytes"
        }
      ],
      "payable": false,
      "stateMutability": "view",
      "type": "function"
    },
    {
      "constant": true,
      "inputs": [],
      "name": "usdTuition",
      "outputs": [
        {
          "name": "",
          "type": "uint256"
        }
      ],
      "payable": false,
      "stateMutability": "view",
      "type": "function"
    },
    {
      "constant": true,
      "inputs": [],
      "name": "weiTuition",
      "outputs": [
        {
          "name": "",
          "type": "uint256"
        }
      ],
      "payable": false,
      "stateMutability": "view",
      "type": "function"
    },
    {
      "constant": false,
      "inputs": [
        {
          "name": "newOwner",
          "type": "address"
        }
      ],
      "name": "transferOwnership",
      "outputs": [],
      "payable": false,
      "stateMutability": "nonpayable",
      "type": "function"
    },
    {
      "constant": true,
      "inputs": [],
      "name": "lastUpdatedTuitionBlock",
      "outputs": [
        {
          "name": "",
          "type": "uint256"
        }
      ],
      "payable": false,
      "stateMutability": "view",
      "type": "function"
    },
    {
      "inputs": [
        {
          "name": "_maxSeats",
          "type": "uint256"
        },
        {
          "name": "_usdTuition",
          "type": "uint256"
        },
        {
          "name": "_spotRate",
          "type": "uint256"
        }
      ],
      "payable": false,
      "stateMutability": "nonpayable",
      "type": "constructor"
    },
    {
      "anonymous": false,
      "inputs": [
        {
          "indexed": false,
          "name": "student",
          "type": "address"
        },
        {
          "indexed": false,
          "name": "name",
          "type": "bytes"
        }
      ],
      "name": "LogEnroll",
      "type": "event"
    },
    {
      "constant": false,
      "inputs": [
        {
          "name": "name",
          "type": "bytes"
        }
      ],
      "name": "enroll",
      "outputs": [],
      "payable": true,
      "stateMutability": "payable",
      "type": "function"
    },
    {
      "constant": true,
      "inputs": [],
      "name": "rosterLength",
      "outputs": [
        {
          "name": "",
          "type": "uint256"
        }
      ],
      "payable": false,
      "stateMutability": "view",
      "type": "function"
    },
    {
      "constant": false,
      "inputs": [],
      "name": "empty",
      "outputs": [],
      "payable": false,
      "stateMutability": "nonpayable",
      "type": "function"
    },
    {
      "constant": false,
      "inputs": [
        {
          "name": "newMaxSeats",
          "type": "uint256"
        }
      ],
      "name": "updateMaxSeats",
      "outputs": [],
      "payable": false,
      "stateMutability": "nonpayable",
      "type": "function"
    },
    {
      "constant": false,
      "inputs": [
        {
          "name": "newTuition",
          "type": "uint256"
        }
      ],
      "name": "updateTuition",
      "outputs": [],
      "payable": false,
      "stateMutability": "nonpayable",
      "type": "function"
    },
    {
      "constant": false,
      "inputs": [
        {
          "name": "newSpotRate",
          "type": "uint256"
        }
      ],
      "name": "updateSpotRate",
      "outputs": [],
      "payable": false,
      "stateMutability": "nonpayable",
      "type": "function"
    }
  ],
  "bytecode": "0x6060604052341561000f57600080fd5b604051606080610df483398101604052808051906020019091908051906020019091908051906020019091905050336000806101000a81548173ffffffffffffffffffffffffffffffffffffffff021916908373ffffffffffffffffffffffffffffffffffffffff1602179055508260018190555081600281905550806004819055506002546004540260038190555043600581905550505050610d3c806100b86000396000f3006060604052600436106100db576000357c0100000000000000000000000000000000000000000000000000000000900463ffffffff168063268d47fb146100e05780635bf8af28146101325780636c442a1b1461015b5780637df221e91461017e5780637e20088d146101e15780638da5cb5b1461020a578063905d3f801461025f578063a6c807a914610288578063d181c5ed14610398578063d8e6a279146103bb578063ead74317146103e4578063f2a75fe41461040d578063f2fde38b14610422578063f5952ee51461045b578063f7e720dd1461047e575b600080fd5b610130600480803590602001908201803590602001908080601f016020809104026020016040519081016040528093929190818152602001838380828437820191505050505050919050506104a7565b005b341561013d57600080fd5b610145610815565b6040518082815260200191505060405180910390f35b341561016657600080fd5b61017c600480803590602001909190505061081b565b005b341561018957600080fd5b61019f6004808035906020019091905050610894565b604051808273ffffffffffffffffffffffffffffffffffffffff1673ffffffffffffffffffffffffffffffffffffffff16815260200191505060405180910390f35b34156101ec57600080fd5b6101f46108d3565b6040518082815260200191505060405180910390f35b341561021557600080fd5b61021d6108e0565b604051808273ffffffffffffffffffffffffffffffffffffffff1673ffffffffffffffffffffffffffffffffffffffff16815260200191505060405180910390f35b341561026a57600080fd5b610272610905565b6040518082815260200191505060405180910390f35b341561029357600080fd5b6102bf600480803573ffffffffffffffffffffffffffffffffffffffff1690602001909190505061090b565b604051808573ffffffffffffffffffffffffffffffffffffffff1673ffffffffffffffffffffffffffffffffffffffff168152602001848152602001838152602001806020018281038252838181546001816001161561010002031660029004815260200191508054600181600116156101000203166002900480156103865780601f1061035b57610100808354040283529160200191610386565b820191906000526020600020905b81548152906001019060200180831161036957829003601f168201915b50509550505050505060405180910390f35b34156103a357600080fd5b6103b9600480803590602001909190505061095a565b005b34156103c657600080fd5b6103ce6109bf565b6040518082815260200191505060405180910390f35b34156103ef57600080fd5b6103f76109c5565b6040518082815260200191505060405180910390f35b341561041857600080fd5b6104206109cb565b005b341561042d57600080fd5b610459600480803573ffffffffffffffffffffffffffffffffffffffff16906020019091905050610b22565b005b341561046657600080fd5b61047c6004808035906020019091905050610bc0565b005b341561048957600080fd5b610491610c39565b6040518082815260200191505060405180910390f35b60035434101515156104b857600080fd5b6001546007805490501015156104cd57600080fd5b6000600660003373ffffffffffffffffffffffffffffffffffffffff1673ffffffffffffffffffffffffffffffffffffffff16815260200190815260200160002060000160009054906101000a900473ffffffffffffffffffffffffffffffffffffffff1673ffffffffffffffffffffffffffffffffffffffff1614151561055457600080fd5b6080604051908101604052803373ffffffffffffffffffffffffffffffffffffffff1681526020016001600780548060010182816105929190610c3f565b9160005260206000209001600033909190916101000a81548173ffffffffffffffffffffffffffffffffffffffff021916908373ffffffffffffffffffffffffffffffffffffffff16021790555003815260200134815260200182815250600660003373ffffffffffffffffffffffffffffffffffffffff1673ffffffffffffffffffffffffffffffffffffffff16815260200190815260200160002060008201518160000160006101000a81548173ffffffffffffffffffffffffffffffffffffffff021916908373ffffffffffffffffffffffffffffffffffffffff160217905550602082015181600101556040820151816002015560608201518160030190805190602001906106a6929190610c6b565b509050507fb711e7cffbfdd954c0ebdbbeaddc8b0e89e5deae22bf80db75f7a0f979f868373382604051808373ffffffffffffffffffffffffffffffffffffffff1673ffffffffffffffffffffffffffffffffffffffff16815260200180602001828103825283818151815260200191508051906020019080838360005b8381101561073f578082015181840152602081019050610724565b50505050905090810190601f16801561076c5780820380516001836020036101000a031916815260200191505b50935050505060405180910390a1600354341115610812573373ffffffffffffffffffffffffffffffffffffffff166108fc60035434039081150290604051600060405180830381858888f1935050505015156107c857600080fd5b600354600660003373ffffffffffffffffffffffffffffffffffffffff1673ffffffffffffffffffffffffffffffffffffffff168152602001908152602001600020600201819055505b50565b60045481565b6000809054906101000a900473ffffffffffffffffffffffffffffffffffffffff1673ffffffffffffffffffffffffffffffffffffffff163373ffffffffffffffffffffffffffffffffffffffff1614151561087657600080fd5b80600281905550600454600254026003819055504360058190555050565b6007818154811015156108a357fe5b90600052602060002090016000915054906101000a900473ffffffffffffffffffffffffffffffffffffffff1681565b6000600780549050905090565b6000809054906101000a900473ffffffffffffffffffffffffffffffffffffffff1681565b60015481565b60066020528060005260406000206000915090508060000160009054906101000a900473ffffffffffffffffffffffffffffffffffffffff169080600101549080600201549080600301905084565b6000809054906101000a900473ffffffffffffffffffffffffffffffffffffffff1673ffffffffffffffffffffffffffffffffffffffff163373ffffffffffffffffffffffffffffffffffffffff161415156109b557600080fd5b8060018190555050565b60025481565b60035481565b6000809054906101000a900473ffffffffffffffffffffffffffffffffffffffff1673ffffffffffffffffffffffffffffffffffffffff163373ffffffffffffffffffffffffffffffffffffffff16141515610a2657600080fd5b6000809054906101000a900473ffffffffffffffffffffffffffffffffffffffff1673ffffffffffffffffffffffffffffffffffffffff163373ffffffffffffffffffffffffffffffffffffffff16141515610a8157600080fd5b453a023073ffffffffffffffffffffffffffffffffffffffff1631111515610aa857600080fd5b6000809054906101000a900473ffffffffffffffffffffffffffffffffffffffff1673ffffffffffffffffffffffffffffffffffffffff166108fc3073ffffffffffffffffffffffffffffffffffffffff16319081150290604051600060405180830381858888f193505050501515610b2057600080fd5b565b6000809054906101000a900473ffffffffffffffffffffffffffffffffffffffff1673ffffffffffffffffffffffffffffffffffffffff163373ffffffffffffffffffffffffffffffffffffffff16141515610b7d57600080fd5b806000806101000a81548173ffffffffffffffffffffffffffffffffffffffff021916908373ffffffffffffffffffffffffffffffffffffffff16021790555050565b6000809054906101000a900473ffffffffffffffffffffffffffffffffffffffff1673ffffffffffffffffffffffffffffffffffffffff163373ffffffffffffffffffffffffffffffffffffffff16141515610c1b57600080fd5b80600481905550600454600254026003819055504360058190555050565b60055481565b815481835581811511610c6657818360005260206000209182019101610c659190610ceb565b5b505050565b828054600181600116156101000203166002900490600052602060002090601f016020900481019282601f10610cac57805160ff1916838001178555610cda565b82800160010185558215610cda579182015b82811115610cd9578251825591602001919060010190610cbe565b5b509050610ce79190610ceb565b5090565b610d0d91905b80821115610d09576000816000905550600101610cf1565b5090565b905600a165627a7a72305820df83a6052b6a477fb5c3dba7fc8ea62d88882ea112b3e04e9474046eea0f9f690029",
  "source": "pragma solidity ^0.4.17;\n\nimport './Ownable.sol';\n\ncontract Enrollment is Ownable {\n    uint public maxSeats;\n    uint public usdTuition;\n    uint public weiTuition;\n    uint public spotRate; //This is wei/usd rate. create oracle for up-to-date pricing\n    uint public lastUpdatedTuitionBlock;\n\n    event LogEnroll(address student, bytes name);\n\n    struct Student {\n      address uuid;\n      uint index;\n      uint balance;\n      bytes name; //Optional\n    }\n\n    mapping (address => Student) public students;\n    address[] public studentList;\n\n    function Enrollment(uint _maxSeats, uint _usdTuition, uint _spotRate) public {\n      maxSeats = _maxSeats;\n      usdTuition = _usdTuition;\n      spotRate = _spotRate;\n\n      weiTuition = spotRate * usdTuition;\n\n      lastUpdatedTuitionBlock = block.number;\n    }\n\n    function enroll(bytes name) public payable {\n      require(msg.value >= weiTuition);\n      require(studentList.length < maxSeats);\n      require(students[msg.sender].uuid == 0);\n\n      students[msg.sender] = Student({\n        uuid: msg.sender,\n        index: studentList.push(msg.sender) - 1,\n        balance: msg.value,\n        name: name\n      });\n\n      LogEnroll(msg.sender, name);\n\n      if(msg.value > weiTuition) {\n        msg.sender.transfer(msg.value - weiTuition);\n        students[msg.sender].balance = weiTuition;\n      }\n    }\n\n    function rosterLength() public view returns (uint) {\n      return studentList.length;\n    }\n\n    /* withdraw a set amount (argument) of ETH to owner account */\n    /* function collect() public onlyOwner {\n      owner.transfer(this.balance);\n    } */\n\n    /* Just empty all ETH in contract to owner's account */\n    function empty() public onlyOwner {\n      require(msg.sender == owner);\n      require(this.balance > (tx.gasprice * block.gaslimit));\n\n      owner.transfer(this.balance);\n    }\n\n    function updateMaxSeats(uint newMaxSeats) public {\n      require(msg.sender == owner);\n\n      maxSeats = newMaxSeats;\n    }\n\n    function updateTuition(uint newTuition) public {\n      require(msg.sender == owner);\n\n      usdTuition = newTuition;\n      weiTuition = usdTuition * spotRate;\n      lastUpdatedTuitionBlock = block.number;\n    }\n\n    function updateSpotRate(uint newSpotRate) public {\n      require(msg.sender == owner);\n\n      spotRate = newSpotRate;\n      weiTuition = usdTuition * spotRate;\n      lastUpdatedTuitionBlock = block.number;\n    }\n\n    /* function refund(address student) public {\n\n    } */\n}\n",
  "sourcePath": "/Users/doug/learning/eth/basic-dapp/contracts/Enrollment.sol",
  "compiler": {
    "name": "solc",
    "version": "0.4.19+commit.c4cbbb05.Emscripten.clang"
  },
  "schemaVersion": "2.0.0",
  "updatedAt": "2018-03-26T04:21:47.002Z"
}