{
  "contractName": "Enrollment",
  "abi": [
    {
      "constant": true,
      "inputs": [],
      "name": "spotRate",
      "outputs": [
        {
          "name": "",
          "type": "uint256"
        }
      ],
      "payable": false,
      "stateMutability": "view",
      "type": "function"
    },
    {
      "constant": true,
      "inputs": [
        {
          "name": "",
          "type": "uint256"
        }
      ],
      "name": "studentList",
      "outputs": [
        {
          "name": "",
          "type": "address"
        }
      ],
      "payable": false,
      "stateMutability": "view",
      "type": "function"
    },
    {
      "constant": true,
      "inputs": [],
      "name": "owner",
      "outputs": [
        {
          "name": "",
          "type": "address"
        }
      ],
      "payable": false,
      "stateMutability": "view",
      "type": "function"
    },
    {
      "constant": true,
      "inputs": [],
      "name": "maxSeats",
      "outputs": [
        {
          "name": "",
          "type": "uint256"
        }
      ],
      "payable": false,
      "stateMutability": "view",
      "type": "function"
    },
    {
      "constant": true,
      "inputs": [
        {
          "name": "",
          "type": "address"
        }
      ],
      "name": "students",
      "outputs": [
        {
          "name": "uuid",
          "type": "address"
        },
        {
          "name": "index",
          "type": "uint256"
        },
        {
          "name": "balance",
          "type": "uint256"
        },
        {
          "name": "name",
          "type": "bytes"
        }
      ],
      "payable": false,
      "stateMutability": "view",
      "type": "function"
    },
    {
      "constant": true,
      "inputs": [],
      "name": "usdTuition",
      "outputs": [
        {
          "name": "",
          "type": "uint256"
        }
      ],
      "payable": false,
      "stateMutability": "view",
      "type": "function"
    },
    {
      "constant": true,
      "inputs": [],
      "name": "weiTuition",
      "outputs": [
        {
          "name": "",
          "type": "uint256"
        }
      ],
      "payable": false,
      "stateMutability": "view",
      "type": "function"
    },
    {
      "constant": false,
      "inputs": [
        {
          "name": "newOwner",
          "type": "address"
        }
      ],
      "name": "transferOwnership",
      "outputs": [],
      "payable": false,
      "stateMutability": "nonpayable",
      "type": "function"
    },
    {
      "constant": true,
      "inputs": [],
      "name": "lastUpdatedTuitionBlock",
      "outputs": [
        {
          "name": "",
          "type": "uint256"
        }
      ],
      "payable": false,
      "stateMutability": "view",
      "type": "function"
    },
    {
      "inputs": [
        {
          "name": "_maxSeats",
          "type": "uint256"
        },
        {
          "name": "_usdTuition",
          "type": "uint256"
        },
        {
          "name": "_spotRate",
          "type": "uint256"
        }
      ],
      "payable": false,
      "stateMutability": "nonpayable",
      "type": "constructor"
    },
    {
      "anonymous": false,
      "inputs": [
        {
          "indexed": false,
          "name": "student",
          "type": "address"
        },
        {
          "indexed": false,
          "name": "name",
          "type": "bytes"
        }
      ],
      "name": "LogEnroll",
      "type": "event"
    },
    {
      "constant": false,
      "inputs": [
        {
          "name": "name",
          "type": "bytes"
        }
      ],
      "name": "enroll",
      "outputs": [],
      "payable": true,
      "stateMutability": "payable",
      "type": "function"
    },
    {
      "constant": true,
      "inputs": [],
      "name": "rosterLength",
      "outputs": [
        {
          "name": "",
          "type": "uint256"
        }
      ],
      "payable": false,
      "stateMutability": "view",
      "type": "function"
    },
    {
      "constant": false,
      "inputs": [
        {
          "name": "newMaxSeats",
          "type": "uint256"
        }
      ],
      "name": "updateMaxSeats",
      "outputs": [],
      "payable": false,
      "stateMutability": "nonpayable",
      "type": "function"
    }
  ],
  "bytecode": "0x6060604052341561000f57600080fd5b604051606080610b2f83398101604052808051906020019091908051906020019091908051906020019091905050336000806101000a81548173ffffffffffffffffffffffffffffffffffffffff021916908373ffffffffffffffffffffffffffffffffffffffff1602179055508260018190555081600281905550806004819055506002546004540260038190555043600581905550505050610a77806100b86000396000f3006060604052600436106100ba576000357c0100000000000000000000000000000000000000000000000000000000900463ffffffff168063268d47fb146100bf5780635bf8af28146101115780637df221e91461013a5780637e20088d1461019d5780638da5cb5b146101c6578063905d3f801461021b578063a6c807a914610244578063d181c5ed14610354578063d8e6a27914610377578063ead74317146103a0578063f2fde38b146103c9578063f7e720dd14610402575b600080fd5b61010f600480803590602001908201803590602001908080601f0160208091040260200160405190810160405280939291908181526020018383808284378201915050505050509190505061042b565b005b341561011c57600080fd5b610124610799565b6040518082815260200191505060405180910390f35b341561014557600080fd5b61015b600480803590602001909190505061079f565b604051808273ffffffffffffffffffffffffffffffffffffffff1673ffffffffffffffffffffffffffffffffffffffff16815260200191505060405180910390f35b34156101a857600080fd5b6101b06107de565b6040518082815260200191505060405180910390f35b34156101d157600080fd5b6101d96107eb565b604051808273ffffffffffffffffffffffffffffffffffffffff1673ffffffffffffffffffffffffffffffffffffffff16815260200191505060405180910390f35b341561022657600080fd5b61022e610810565b6040518082815260200191505060405180910390f35b341561024f57600080fd5b61027b600480803573ffffffffffffffffffffffffffffffffffffffff16906020019091905050610816565b604051808573ffffffffffffffffffffffffffffffffffffffff1673ffffffffffffffffffffffffffffffffffffffff168152602001848152602001838152602001806020018281038252838181546001816001161561010002031660029004815260200191508054600181600116156101000203166002900480156103425780601f1061031757610100808354040283529160200191610342565b820191906000526020600020905b81548152906001019060200180831161032557829003601f168201915b50509550505050505060405180910390f35b341561035f57600080fd5b6103756004808035906020019091905050610865565b005b341561038257600080fd5b61038a6108ca565b6040518082815260200191505060405180910390f35b34156103ab57600080fd5b6103b36108d0565b6040518082815260200191505060405180910390f35b34156103d457600080fd5b610400600480803573ffffffffffffffffffffffffffffffffffffffff169060200190919050506108d6565b005b341561040d57600080fd5b610415610974565b6040518082815260200191505060405180910390f35b600354341015151561043c57600080fd5b60015460078054905010151561045157600080fd5b6000600660003373ffffffffffffffffffffffffffffffffffffffff1673ffffffffffffffffffffffffffffffffffffffff16815260200190815260200160002060000160009054906101000a900473ffffffffffffffffffffffffffffffffffffffff1673ffffffffffffffffffffffffffffffffffffffff161415156104d857600080fd5b6080604051908101604052803373ffffffffffffffffffffffffffffffffffffffff168152602001600160078054806001018281610516919061097a565b9160005260206000209001600033909190916101000a81548173ffffffffffffffffffffffffffffffffffffffff021916908373ffffffffffffffffffffffffffffffffffffffff16021790555003815260200134815260200182815250600660003373ffffffffffffffffffffffffffffffffffffffff1673ffffffffffffffffffffffffffffffffffffffff16815260200190815260200160002060008201518160000160006101000a81548173ffffffffffffffffffffffffffffffffffffffff021916908373ffffffffffffffffffffffffffffffffffffffff1602179055506020820151816001015560408201518160020155606082015181600301908051906020019061062a9291906109a6565b509050507fb711e7cffbfdd954c0ebdbbeaddc8b0e89e5deae22bf80db75f7a0f979f868373382604051808373ffffffffffffffffffffffffffffffffffffffff1673ffffffffffffffffffffffffffffffffffffffff16815260200180602001828103825283818151815260200191508051906020019080838360005b838110156106c35780820151818401526020810190506106a8565b50505050905090810190601f1680156106f05780820380516001836020036101000a031916815260200191505b50935050505060405180910390a1600354341115610796573373ffffffffffffffffffffffffffffffffffffffff166108fc60035434039081150290604051600060405180830381858888f19350505050151561074c57600080fd5b600354600660003373ffffffffffffffffffffffffffffffffffffffff1673ffffffffffffffffffffffffffffffffffffffff168152602001908152602001600020600201819055505b50565b60045481565b6007818154811015156107ae57fe5b90600052602060002090016000915054906101000a900473ffffffffffffffffffffffffffffffffffffffff1681565b6000600780549050905090565b6000809054906101000a900473ffffffffffffffffffffffffffffffffffffffff1681565b60015481565b60066020528060005260406000206000915090508060000160009054906101000a900473ffffffffffffffffffffffffffffffffffffffff169080600101549080600201549080600301905084565b6000809054906101000a900473ffffffffffffffffffffffffffffffffffffffff1673ffffffffffffffffffffffffffffffffffffffff163373ffffffffffffffffffffffffffffffffffffffff161415156108c057600080fd5b8060018190555050565b60025481565b60035481565b6000809054906101000a900473ffffffffffffffffffffffffffffffffffffffff1673ffffffffffffffffffffffffffffffffffffffff163373ffffffffffffffffffffffffffffffffffffffff1614151561093157600080fd5b806000806101000a81548173ffffffffffffffffffffffffffffffffffffffff021916908373ffffffffffffffffffffffffffffffffffffffff16021790555050565b60055481565b8154818355818115116109a1578183600052602060002091820191016109a09190610a26565b5b505050565b828054600181600116156101000203166002900490600052602060002090601f016020900481019282601f106109e757805160ff1916838001178555610a15565b82800160010185558215610a15579182015b82811115610a145782518255916020019190600101906109f9565b5b509050610a229190610a26565b5090565b610a4891905b80821115610a44576000816000905550600101610a2c565b5090565b905600a165627a7a723058201f91c9720e947acf33d6b756f686704f0680ba090950b4fd5149c95ee621c9670029",
  "source": "pragma solidity ^0.4.17;\n\nimport './Ownable.sol';\n\ncontract Enrollment is Ownable {\n    uint public maxSeats;\n    uint public usdTuition;\n    uint public weiTuition;\n    uint public spotRate; //This is wei/usd rate. create oracle for up-to-date pricing\n    uint public lastUpdatedTuitionBlock;\n\n    event LogEnroll(address student, bytes name);\n\n    struct Student {\n      address uuid;\n      uint index;\n      uint balance;\n      bytes name; //Optional\n    }\n\n    mapping (address => Student) public students;\n    address[] public studentList;\n\n    function Enrollment(uint _maxSeats, uint _usdTuition, uint _spotRate) public {\n      maxSeats = _maxSeats;\n      usdTuition = _usdTuition;\n      spotRate = _spotRate;\n\n      weiTuition = spotRate * usdTuition;\n\n      lastUpdatedTuitionBlock = block.number;\n    }\n\n    function enroll(bytes name) public payable {\n      require(msg.value >= weiTuition);\n      require(studentList.length < maxSeats);\n      require(students[msg.sender].uuid == 0);\n\n      students[msg.sender] = Student({\n        uuid: msg.sender,\n        index: studentList.push(msg.sender) - 1,\n        balance: msg.value,\n        name: name\n      });\n\n      LogEnroll(msg.sender, name);\n\n      if(msg.value > weiTuition) {\n        msg.sender.transfer(msg.value - weiTuition);\n        students[msg.sender].balance = weiTuition;\n      }\n    }\n\n    function rosterLength() public view returns (uint) {\n      return studentList.length;\n    }\n\n    /* withdraw a set amount (argument) of ETH to owner account */\n    /* function collect() public onlyOwner {\n      owner.transfer(this.balance);\n    } */\n\n    /* Just empty all ETH in contract to owner's account */\n    /* function empty() public onlyOwner {\n\n    } */\n\n    function updateMaxSeats(uint newMaxSeats) public {\n      require(msg.sender == owner);\n\n      maxSeats = newMaxSeats;\n    }\n\n    /* function updateUsdTuition(uint newMaxSeats) public {\n      require(msg.sender == owner);\n      require(newMaxSeats > 0);\n\n      maxSeats = newMaxSeats;\n    } */\n\n    /* function updateSpotRate(uint newMaxSeats) public {\n      require(msg.sender == owner);\n      require(newMaxSeats > 0);\n\n      maxSeats = newMaxSeats;\n    } */\n\n    /* function refund(address student) public {\n\n    } */\n}\n",
  "sourcePath": "/Users/doug/learning/eth/basic-dapp/contracts/Enrollment.sol",
  "compiler": {
    "name": "solc",
    "version": "0.4.19+commit.c4cbbb05.Emscripten.clang"
  },
  "schemaVersion": "2.0.0",
  "updatedAt": "2018-03-25T22:30:52.537Z"
}