{
  "contractName": "Enrollment",
  "abi": [
    {
      "constant": true,
      "inputs": [],
      "name": "spotRate",
      "outputs": [
        {
          "name": "",
          "type": "uint256"
        }
      ],
      "payable": false,
      "stateMutability": "view",
      "type": "function"
    },
    {
      "constant": true,
      "inputs": [
        {
          "name": "",
          "type": "uint256"
        }
      ],
      "name": "studentList",
      "outputs": [
        {
          "name": "",
          "type": "address"
        }
      ],
      "payable": false,
      "stateMutability": "view",
      "type": "function"
    },
    {
      "constant": true,
      "inputs": [],
      "name": "owner",
      "outputs": [
        {
          "name": "",
          "type": "address"
        }
      ],
      "payable": false,
      "stateMutability": "view",
      "type": "function"
    },
    {
      "constant": true,
      "inputs": [],
      "name": "maxSeats",
      "outputs": [
        {
          "name": "",
          "type": "uint256"
        }
      ],
      "payable": false,
      "stateMutability": "view",
      "type": "function"
    },
    {
      "constant": true,
      "inputs": [
        {
          "name": "",
          "type": "address"
        }
      ],
      "name": "students",
      "outputs": [
        {
          "name": "uuid",
          "type": "address"
        },
        {
          "name": "index",
          "type": "uint256"
        },
        {
          "name": "balance",
          "type": "uint256"
        },
        {
          "name": "name",
          "type": "bytes"
        }
      ],
      "payable": false,
      "stateMutability": "view",
      "type": "function"
    },
    {
      "constant": true,
      "inputs": [],
      "name": "usdTuition",
      "outputs": [
        {
          "name": "",
          "type": "uint256"
        }
      ],
      "payable": false,
      "stateMutability": "view",
      "type": "function"
    },
    {
      "constant": true,
      "inputs": [],
      "name": "weiTuition",
      "outputs": [
        {
          "name": "",
          "type": "uint256"
        }
      ],
      "payable": false,
      "stateMutability": "view",
      "type": "function"
    },
    {
      "constant": true,
      "inputs": [],
      "name": "lastUpdatedTuitionBlock",
      "outputs": [
        {
          "name": "",
          "type": "uint256"
        }
      ],
      "payable": false,
      "stateMutability": "view",
      "type": "function"
    },
    {
      "inputs": [
        {
          "name": "_maxSeats",
          "type": "uint256"
        },
        {
          "name": "_usdTuition",
          "type": "uint256"
        },
        {
          "name": "_spotRate",
          "type": "uint256"
        }
      ],
      "payable": false,
      "stateMutability": "nonpayable",
      "type": "constructor"
    },
    {
      "constant": false,
      "inputs": [
        {
          "name": "name",
          "type": "bytes"
        }
      ],
      "name": "enroll",
      "outputs": [],
      "payable": true,
      "stateMutability": "payable",
      "type": "function"
    }
  ],
  "bytecode": "0x6060604052341561000f57600080fd5b6040516060806108a983398101604052808051906020019091908051906020019091908051906020019091905050336000806101000a81548173ffffffffffffffffffffffffffffffffffffffff021916908373ffffffffffffffffffffffffffffffffffffffff16021790555082600181905550816002819055508060048190555060025460045402600381905550436005819055505050506107f1806100b86000396000f300606060405260043610610099576000357c0100000000000000000000000000000000000000000000000000000000900463ffffffff168063268d47fb1461009e5780635bf8af28146100f05780637df221e9146101195780638da5cb5b1461017c578063905d3f80146101d1578063a6c807a9146101fa578063d8e6a2791461030a578063ead7431714610333578063f7e720dd1461035c575b600080fd5b6100ee600480803590602001908201803590602001908080601f01602080910402602001604051908101604052809392919081815260200183838082843782019150505050505091905050610385565b005b34156100fb57600080fd5b610103610623565b6040518082815260200191505060405180910390f35b341561012457600080fd5b61013a6004808035906020019091905050610629565b604051808273ffffffffffffffffffffffffffffffffffffffff1673ffffffffffffffffffffffffffffffffffffffff16815260200191505060405180910390f35b341561018757600080fd5b61018f610668565b604051808273ffffffffffffffffffffffffffffffffffffffff1673ffffffffffffffffffffffffffffffffffffffff16815260200191505060405180910390f35b34156101dc57600080fd5b6101e461068d565b6040518082815260200191505060405180910390f35b341561020557600080fd5b610231600480803573ffffffffffffffffffffffffffffffffffffffff16906020019091905050610693565b604051808573ffffffffffffffffffffffffffffffffffffffff1673ffffffffffffffffffffffffffffffffffffffff168152602001848152602001838152602001806020018281038252838181546001816001161561010002031660029004815260200191508054600181600116156101000203166002900480156102f85780601f106102cd576101008083540402835291602001916102f8565b820191906000526020600020905b8154815290600101906020018083116102db57829003601f168201915b50509550505050505060405180910390f35b341561031557600080fd5b61031d6106e2565b6040518082815260200191505060405180910390f35b341561033e57600080fd5b6103466106e8565b6040518082815260200191505060405180910390f35b341561036757600080fd5b61036f6106ee565b6040518082815260200191505060405180910390f35b600354341015151561039657600080fd5b6001546007805490501015156103ab57600080fd5b6000600660003373ffffffffffffffffffffffffffffffffffffffff1673ffffffffffffffffffffffffffffffffffffffff16815260200190815260200160002060000160009054906101000a900473ffffffffffffffffffffffffffffffffffffffff1673ffffffffffffffffffffffffffffffffffffffff1614151561043257600080fd5b6080604051908101604052803373ffffffffffffffffffffffffffffffffffffffff16815260200160016007805480600101828161047091906106f4565b9160005260206000209001600033909190916101000a81548173ffffffffffffffffffffffffffffffffffffffff021916908373ffffffffffffffffffffffffffffffffffffffff16021790555003815260200134815260200182815250600660003373ffffffffffffffffffffffffffffffffffffffff1673ffffffffffffffffffffffffffffffffffffffff16815260200190815260200160002060008201518160000160006101000a81548173ffffffffffffffffffffffffffffffffffffffff021916908373ffffffffffffffffffffffffffffffffffffffff16021790555060208201518160010155604082015181600201556060820151816003019080519060200190610584929190610720565b50905050600354341115610620573373ffffffffffffffffffffffffffffffffffffffff166108fc60035434039081150290604051600060405180830381858888f1935050505015156105d657600080fd5b600354600660003373ffffffffffffffffffffffffffffffffffffffff1673ffffffffffffffffffffffffffffffffffffffff168152602001908152602001600020600201819055505b50565b60045481565b60078181548110151561063857fe5b90600052602060002090016000915054906101000a900473ffffffffffffffffffffffffffffffffffffffff1681565b6000809054906101000a900473ffffffffffffffffffffffffffffffffffffffff1681565b60015481565b60066020528060005260406000206000915090508060000160009054906101000a900473ffffffffffffffffffffffffffffffffffffffff169080600101549080600201549080600301905084565b60025481565b60035481565b60055481565b81548183558181151161071b5781836000526020600020918201910161071a91906107a0565b5b505050565b828054600181600116156101000203166002900490600052602060002090601f016020900481019282601f1061076157805160ff191683800117855561078f565b8280016001018555821561078f579182015b8281111561078e578251825591602001919060010190610773565b5b50905061079c91906107a0565b5090565b6107c291905b808211156107be5760008160009055506001016107a6565b5090565b905600a165627a7a723058205b51f49ed45b9df6ac9c1e23b5cba0ed816742f6b1038fd66e87288020e301020029",
  "source": "pragma solidity ^0.4.17;\n\ncontract Enrollment {\n    address public owner;\n    uint public maxSeats;\n    uint public usdTuition;\n    uint public weiTuition;\n    uint public spotRate; //This is wei/usd rate. create oracle for up-to-date pricing\n    uint public lastUpdatedTuitionBlock;\n\n    struct Student {\n      address uuid;\n      uint index;\n      uint balance;\n      bytes name; //Optional\n    }\n\n    mapping (address => Student) public students;\n    address[] public studentList;\n\n    function Enrollment(uint _maxSeats, uint _usdTuition, uint _spotRate) public {\n      owner = msg.sender;\n      maxSeats = _maxSeats;\n      usdTuition = _usdTuition;\n      spotRate = _spotRate;\n\n      weiTuition = spotRate * usdTuition;\n\n      lastUpdatedTuitionBlock = block.number;\n    }\n\n    function enroll(bytes name) public payable {\n      require(msg.value >= weiTuition);\n      require(studentList.length < maxSeats);\n      require(students[msg.sender].uuid == 0);\n\n      students[msg.sender] = Student({\n        uuid: msg.sender,\n        index: studentList.push(msg.sender) - 1,\n        balance: msg.value,\n        name: name\n      });\n\n      if(msg.value > weiTuition) {\n        msg.sender.transfer(msg.value - weiTuition);\n        students[msg.sender].balance = weiTuition;\n      }\n    }\n\n    /* function changeMaxSeats(uint newMaxSeats) public {\n      require(msg.sender == owner);\n      require(newMaxSeats > 0);\n\n      maxSeats = newMaxSeats;\n    } */\n}\n",
  "sourcePath": "/Users/doug/learning/eth/basic-dapp/contracts/Enrollment.sol",
  "compiler": {
    "name": "solc",
    "version": "0.4.19+commit.c4cbbb05.Emscripten.clang"
  },
  "schemaVersion": "2.0.0",
  "updatedAt": "2018-02-28T16:56:13.563Z"
}